:020000040000fa
:080000000002040000000000f2
:020000040000fa
:04000800c80200002a
:020000040000fa
:04000c00c802000026
:020000040000fa
:04001000c802000022
:020000040000fa
:04001400c80200001e
:020000040000fa
:04001800c80200001a
:020000040000fa
:04001c00c802000016
:020000040000fa
:04002000c802000012
:020000040000fa
:04002400c80200000e
:020000040000fa
:04002800c80200000a
:020000040000fa
:04002c00c802000006
:020000040000fa
:04003000c802000002
:020000040000fa
:04003400c8020000fe
:020000040000fa
:04003800c8020000fa
:020000040000fa
:04003c00c8020000f6
:020000040000fa
:04004000c8020000f2
:020000040000fa
:04004400c8020000ee
:020000040000fa
:04004800c8020000ea
:020000040000fa
:04004c00c8020000e6
:020000040000fa
:04005000c8020000e2
:020000040000fa
:04005400c8020000de
:020000040000fa
:04005800c8020000da
:020000040000fa
:04005c00c8020000d6
:020000040000fa
:04006000c8020000d2
:020000040000fa
:04006400c8020000ce
:020000040000fa
:04006800c8020000ca
:020000040000fa
:04006c00c8020000c6
:020000040000fa
:04007000c8020000c2
:020000040000fa
:04007400c8020000be
:020000040000fa
:04007800c8020000ba
:020000040000fa
:04007c00c8020000b6
:020000040000fa
:04008000c8020000b2
:020000040000fa
:04008400c8020000ae
:020000040000fa
:04008800c8020000aa
:020000040000fa
:04008c00c8020000a6
:020000040000fa
:04009000c8020000a2
:020000040000fa
:04009400c80200009e
:020000040000fa
:04009800c80200009a
:020000040000fa
:04009c00c802000096
:020000040000fa
:0400a000c802000092
:020000040000fa
:0400a400c80200008e
:020000040000fa
:0400a800c80200008a
:020000040000fa
:0400ac00c802000086
:020000040000fa
:0400b000c802000082
:020000040000fa
:0400b400c80200007e
:020000040000fa
:0400b800c80200007a
:020000040000fa
:0400bc00c802000076
:020000040000fa
:0400c000c802000072
:020000040000fa
:0400c400c80200006e
:020000040000fa
:0400c800c80200006a
:020000040000fa
:0400cc00c802000066
:020000040000fa
:0400d000c802000062
:020000040000fa
:0400d400c80200005e
:020000040000fa
:0400d800c80200005a
:020000040000fa
:0400dc00c802000056
:020000040000fa
:0400e000c802000052
:020000040000fa
:0400e400c80200004e
:020000040000fa
:0400e800c80200004a
:020000040000fa
:0400ec00c802000046
:020000040000fa
:0400f000c802000042
:020000040000fa
:0400f400c80200003e
:020000040000fa
:0400f800c80200003a
:020000040000fa
:0400fc00c802000036
:020000040000fa
:04010000c802000031
:020000040000fa
:04010400c80200002d
:020000040000fa
:04010800c802000029
:020000040000fa
:04010c00c802000025
:020000040000fa
:04011000c802000021
:020000040000fa
:04011400c80200001d
:020000040000fa
:04011800c802000019
:020000040000fa
:04011c00c802000015
:020000040000fa
:04012000c802000011
:020000040000fa
:04012400c80200000d
:020000040000fa
:04012800c802000009
:020000040000fa
:04012c00c802000005
:020000040000fa
:04013000c802000001
:020000040000fa
:04013400c8020000fd
:020000040000fa
:04013800c8020000f9
:020000040000fa
:04013c00c8020000f5
:020000040000fa
:04014000c8020000f1
:020000040000fa
:04014400c8020000ed
:020000040000fa
:04014800c8020000e9
:020000040000fa
:04020800c802000028
:020000040000fa
:04020c00c802000024
:020000040000fa
:04021000c802000020
:020000040000fa
:04021400c80200001c
:020000040000fa
:04021800c802000018
:020000040000fa
:04021c00c802000014
:020000040000fa
:04022000c802000010
:020000040000fa
:04022400c80200000c
:020000040000fa
:04022800c802000008
:020000040000fa
:04022c00c802000004
:020000040000fa
:04023000c802000000
:020000040000fa
:04023400c8020000fc
:020000040000fa
:04023800c8020000f8
:020000040000fa
:04023c00c8020000f4
:020000040000fa
:04024000c8020000f0
:020000040000fa
:04024400c8020000ec
:020000040000fa
:04024800c8020000e8
:020000040000fa
:04024c00c8020000e4
:020000040000fa
:04025000c8020000e0
:020000040000fa
:04025400c8020000dc
:020000040000fa
:04025800c8020000d8
:020000040000fa
:04025c00c8020000d4
:020000040000fa
:04026000c8020000d0
:020000040000fa
:04026400c8020000cc
:020000040000fa
:04026800c8020000c8
:020000040000fa
:04026c00c8020000c4
:020000040000fa
:04027000c8020000c0
:020000040000fa
:04027400c8020000bc
:020000040000fa
:04027800c8020000b8
:020000040000fa
:04027c00c8020000b4
:020000040000fa
:04028000c8020000b0
:020000040000fa
:04028400c8020000ac
:020000040000fa
:04028800c8020000a8
:020000040000fa
:04028c00c8020000a4
:020000040000fa
:04029000c8020000a0
:020000040000fa
:04029400c80200009c
:020000040000fa
:04029800c802000098
:020000040000fa
:04029c00c802000094
:020000040000fa
:0402a000c802000090
:020000040000fa
:0402a400c80200008c
:020000040000fa
:0402a800c802000088
:020000040000fa
:0402ac00c802000084
:020000040000fa
:0402b000c802000080
:020000040000fa
:0402b400c80200007c
:020000040000fa
:0402b800c802000078
:020000040000fa
:0402bc00c802000074
:020000040000fa
:0402c000c802000070
:020000040000fa
:0402c400c80200006c
:020000040000fa
:0402c800c802000068
:020000040000fa
:0402cc00c802000064
:020000040000fa
:0402d000c802000060
:020000040000fa
:0402d400c80200005c
:020000040000fa
:0402d800c802000058
:020000040000fa
:0402dc00c802000054
:020000040000fa
:0402e000c802000050
:020000040000fa
:0402e400c80200004c
:020000040000fa
:0402e800c802000048
:020000040000fa
:0402ec00c802000044
:020000040000fa
:0402f000c802000040
:020000040000fa
:0402f400c80200003c
:020000040000fa
:0402f800c802000038
:020000040000fa
:0402fc00c802000034
:020000040000fa
:04030000c80200002f
:020000040000fa
:04030400c80200002b
:020000040000fa
:04030800c802000027
:020000040000fa
:04030c00c802000023
:020000040000fa
:04031000c80200001f
:020000040000fa
:04031400c80200001b
:020000040000fa
:04031800c802000017
:020000040000fa
:04031c00c802000013
:020000040000fa
:04032000c80200000f
:020000040000fa
:04032400c80200000b
:020000040000fa
:04032800c802000007
:020000040000fa
:04032c00c802000003
:020000040000fa
:04033000c8020000ff
:020000040000fa
:04033400c8020000fb
:020000040000fa
:04033800c8020000f7
:020000040000fa
:04033c00c8020000f3
:020000040000fa
:04034000c8020000ef
:020000040000fa
:04034400c8020000eb
:020000040000fa
:04034800c8020000e7
:020000040000fa
:100400000f8020000e7f22000e01880000000000f7
:10041000000020000000e000020032000001200087
:1004200020028800140007005b0007000000e000c5
:1004300003003a0000002000010020000200370005
:100440000000200001002000810f70000100320038
:1004500014000700000020000000e000020032004d
:100460000000020000000000ec0502000000000097
:100470000040da000000fe004440a9000000200017
:100480000000e0000300320000002000a00188000e
:100490004440a800000006008a1f78008b1f7800e7
:1004a0000000060091018800800478000000eb0045
:1004b0001a003700e284440032a0b4009905ba0063
:1004c000e284440032a0b4009906ba00e2844400f9
:1004d00032a0b4000006eb00476fde00fd07b2005b
:1004e000636ce10003003a00ebff07000000eb0043
:1004f0000a003700606ce10004003a00005deb0088
:100500008b05e900fdff3e00040037006168e10053
:10051000010032000086eb000b00070019c7ba008b
:100520001905ba000e04e00003003a000a00e000da
:10053000e0ff3a0000000600fe07b2009e018800be
:100540008a047800f5ff3700395dba008b05e900b1
:100550000c003200295dba008b05e900080032006a
:100560000c00e00003003a00e284440032a0b40032
:10057000f5ff370019ddba008b05e900faff3a00f4
:100580008904e800e184440032a0b40000000600c1
:100590000040da000000fe00000005000001be007f
:1005a000220007000470a70003f0a1006509b10054
:1005b000160032000d0035006828e1000600350005
:1005c000f0ff2f00f1ff27000300e00013003b00c5
:1005d0000100280000000500000040008180480064
:1005e0008502e900fcff3a0008003700f88f42005e
:1005f00002003c008000eb00000005008100d100fb
:100600000080d3008502e800fcff3a000300e00010
:1006100002003b0060001000e080180000000600af
:100620004f89de008201780049003700c70ade00ea
:10063000f107b200f50fb20008003200e1cf42002e
:10064000020032000170a00024000500810f70003c
:10065000010032000408050044000500810f70000d
:1006600002003a00140005008502e9000000400085
:1006700081c04800fcff3b000170a0002400050081
:10068000889fbe008a9fbe008c1f780095000700df
:100690009c00330003866c006450e10024003200ab
:1006a0006420e100270032006150e10022003200a6
:1006b0006120e100210032008b854200eb07b10090
:1006c0000134b800003ab8000804420089844a00a6
:1006d000013ab8000030b8008880400009014a00a3
:1006e00004003300000040008180480002014900fe
:1006f0008b05e900c909dd008301700001003200ab
:1007000013002000c814de004814dd004709de0095
:100710001200b200c808de00088470004b00070019
:1007200001f0a1000cf0a70001f0a0007e0037004e
:100730006120e100800032000801be000200be001e
:10074000f7ff37006150e100fcff3a007a00370004
:10075000881f7800030478000300e00007003d00d4
:1007600060001000e080180060011900e0811900ad
:1007700002003b0001f02d000300370004000700d9
:1007800008f0a70001f0a0004f0478000000060068
:10079000889fbe008a9fbe00008270000402710024
:1007a00004827100260032000004be000200be0078
:1007b0006011b8006b092000950220000182cf0073
:1007c0000a0039000541b1000082cf00070039005e
:1007d0000541b1000982cf00040039000541b10094
:1007e0000882cf00010039000541b10005425200e6
:1007f000120032000a003b00828171006101640036
:100800008100d1000080d3008984d3000884d30004
:100810008b05e8000442e800f7ff3a0007003700c4
:100820000804440089844c0000004800818048008e
:100830008b05e9000442e900f9ff3a0003000700d4
:100840004f05be004f04be000000060081002000de
:10085000618055000b003d000b00200061fe2f0061
:100860000100e1001d00340082817100610164001b
:100870008904d1000884d3000000e800faff3a00a0
:10088000710020006100640003007000020060003d
:100890000900320061044400e0844c000988a5008e
:1008a000050032008b05e8006808e10002003a000c
:1008b0008904d1000884d300f20f20000258e1001f
:1008c00005003d00c75ddd00f907b20089807500b5
:1008d00008007800000006000bf827008b00780065
:1008e000000005000004be0050ff07000003be002a
:1008f0000405be000200be004cff0700844f7500d7
:10090000000006000200be006450e1000500360051
:100910006420e100020036000968a30001003a00eb
:100920000800be000160a0004f0678004f05be0021
:100930004f04be0000000600f0ff2f00f1ff27006b
:04094000f9ff370084
:020000040000fa
:100944000000fa002c03a9002c23a8002c43a800c3
:100954002c63a8002c83a8002ca3a8002cc3a800f7
:100964002ce3a8002d03a8002d23a8002d43a800e4
:100974002d63a8002d83a8002de3a800c002a800c1
:10098400c022a900c042a900c062a900c082a90077
:10099400c0e2a900c102a900c122a900c142a90064
:1009a400c602a900c622a900c642a900c662a900bf
:1009b400c682a900c6e2a900c702a900c722a900ed
:1009c400c742a900c402a900c422a900c442a900c4
:1009d400c462a900c482a900c4e2a900c502a90096
:1009e400c522a900c542a900c802a800c822a800bf
:1009f400c842a800c862a800c882a800c8a2a8006b
:100a0400c8c2a900c8e2a900c902a900c122a9005c
:100a1400c142a900c962a900c982a900c9a2a9004a
:100a2400c9c2a900c9e2a900ce02a900ce22a90028
:100a3400ce42a900ce62a900ce82a900cea2a9000e
:100a4400cec2a900cee2a900cf02a900cf22a900fc
:100a5400cf42a900cf62a900cf82a900cfa2a900ea
:100a6400cfc2a900cfe2a900cc22ef00d002a90096
:100a7400d022a900d042a900d062a900d082a90046
:100a8400d0a2a900d0c2a900d0e2a900d102a90035
:100a9400d122a800d602a900d622a900d642a900d4
:100aa400d662a900d682a900d6a2a900d6c2a900fe
:100ab400d6e2a900d702a900d722a900d402a9002e
:100ac400d422a900d442a900d462a900d482a900e6
:100ad400d4a2a900d4c2a900d4e2a900d502a900d5
:100ae400d522a9000080fa00000006000800fa00e0
:100af400889fbe0020079800310798006000b80066
:100b0400008fbe002e009000be009000c3fe0700c0
:100b140012002000a35f2400d8fe07009efe0700f9
:100b2400008fbe001e007800600888001e00be0012
:100b3400408cde00cf8cde0008007800700888004e
:100b44001021ef001221ef000a21ef000621ef002f
:100b540081088000f0fc2f0000806000800888007d
:100b64008500a9001061a80011e1a80000000000a0
:100b74002104800000102000008060000000e000dc
:100b8400fbff32004f04be000080fa0000000600a4
:100b94000400fa00008fbe001e0078000000400030
:100ba400600888001021ef000621ef0084e0a9000e
:100bb40011e1a800000000002104800000082000ca
:100bc400008060000000e000fbff32000080fa00bb
:100bd400000006000400fa00000f780011079800d6
:100be40057ff0700d402a800d422a900d442a900c8
:080bf400d482a900fbff3700c9
:020000040000fa
:020000040001f9
:0457f800aff9000005
:020000040000fa
:020000040001f9
:0457fc007f3f0000eb
:00000001FF
